:100000000A128A1112280800FE00030E831203133D
:10001000A9000408AA000A08AB007F08AC000A1275
:100020008A153D2A0A128A1115288317E930FD0026
:100030000830FE006430FF00DB3084000A128A11B1
:10004000F2270A128A113A30FD000730FE00C43050
:10005000FF00103084000A128A11F2270A128A1156
:100060000A128A1545200A128A11F8000A128A1506
:1000700046200A128A11F9000A128A1547200A122C
:100080008A11FA000A128A1548200A128A11FB0006
:100090000A128A1549200A128A11FC009030840045
:1000A000DB300A128A1552200A128A11831350304B
:1000B000840060300A128A155220FD0183010A1261
:1000C0008A116228003083120317D4000030D30055
:1000D0000030D2000030D1006E3083160313D900F7
:1000E000590883120317BA008316031386100611EA
:1000F0008611013083160317880089010A128A15B8
:10010000A5200A128A11003083120317D400003090
:10011000D3000030D2000030D1000030C6000030E3
:10012000C5000030C4000030C3004608031D052987
:100130004508031D052901304402031DA328903002
:100140004302031DA3280318052900300A128A154B
:10015000DC210A128A11D6300A128A15BD230A122E
:100160008A11053083160313D9005908831203132B
:10017000AD005F080A128A1592200A128A11D63E33
:1001800084008317000883120317BF00840A000845
:10019000C000840A0008C100840A0008C2004208A6
:1001A0005402031DDD2841085302031DDD284008C9
:1001B0005202031DDD283F0851020318E7284208B8
:1001C000D4004108D3004008D2003F08D1000130DC
:1001D000C307003003180130C40700300318013092
:1001E000C507003003180130C6074608031D05295E
:1001F0004508031D052901304402031D03299030E1
:100200004302031D0329031CA52854088316031366
:10021000A30083120317530883160313A20083124B
:100220000317520883160313A10083120317510802
:1002300083160313A0000030A7000030A600003092
:10024000A5000530A4000030AB000030AA0000304B
:10025000A9000030A8005530D9005908AC00593029
:10026000DA005A08AD000A128A154D250A128A11C1
:1002700083120317540883160317CB008312031746
:10028000530883160317CA008312031752088316F4
:100290000317C90083120317510883160317C800F8
:1002A0004B0883120313CB00831603174A088312EB
:1002B0000313CA0083160317490883120313C900E6
:1002C00083160317480883120313C80004300A1268
:1002D0008A1152240A128A11943083120313AE0039
:1002E0009130AF000A128A15C8200A128A118312AF
:1002F0000317560883160317C900831203175508FE
:1003000083160317C8004B0883120313CB00831610
:1003100003174A0883120313CA00831603174908F8
:1003200083120313C90083160317480883120313AB
:10033000C80013300A128A1152240A128A1194300A
:1003400083120313AE009130AF000A128A15C82041
:100350000A128A11831203175A0883160317C90059
:1003600083120317590883160317C8004B0883121A
:100370000313CB00831603174A0883120313CA0022
:1003800083160317490883120313C9008316031742
:10039000480883120313C80013300A128A1152242A
:1003A0000A128A11943083120313AE009130AF0009
:1003B0000A128A15C8200A128A11831203175508D7
:1003C00083160313D90083120317560883160313E9
:1003D000DA0083120317570883160313DB00831216
:1003E0000317580883160313DC0003300310D90DDC
:1003F000DA0DDB0DDC0DFF3E031DF6295C088312D0
:100400000317CC00831603135B0883120317CB007A
:10041000831603135A0883120317CA0083160313A3
:10042000590883120317C900003083120313BD005B
:100430000030BC000030BB000A30BA008312031742
:100440005C0883120313C100831203175B08831235
:100450000313C000831203175A0883120313BF004B
:1004600083120317590883120313BE000A128A1558
:100470007C210A128A11831203133A08831603138C
:10048000D900831203133B0883160313DA00831287
:1004900003133C0883160313DB00831203133D0888
:1004A00083160313DC0003300310D90DDA0DDB0DC6
:1004B000DC0DFF3E031D542A5C0883120317D00095
:1004C000831603135B0883120317CF0083160313ED
:1004D0005A0883120317CE00831603135908831298
:1004E0000317CD00003083120313BD000030BC00A1
:1004F0000030BB006430BA00831203175008831227
:100500000313C100831203174F0883120313C000A3
:10051000831203174E0883120313BF0083120317BD
:100520004D0883120313BE000A128A157C210A1299
:100530008A11831203133A0883120317490783169B
:100540000313D900003003180130831203133B0753
:1005500083160313DB010318DB0A831203174A0710
:1005600083160313DA000318DB0A831203133C0813
:10057000831603135B07DC010318DC0A83120317DD
:100580004B0783160313DB000318DC0A83120313E3
:100590003D08831603135C07831203174C07831669
:1005A0000313DC005C0883120317BE0083160313D9
:1005B0005B0883120317BD00831603135A088312C6
:1005C0000317BC0083160313590883120317BB00DB
:1005D0003E083D043C043B0403191E2B01308316E6
:1005E0000313D9000030DA000030DB000030DC00FB
:1005F000590883120317BB02831603135A08031CFE
:100600005A0F032B062B83120317BC028316031306
:100610005B08031C5B0F0D2B102B83120317BD020D
:10062000831603135C08031C5C0F172B1A2B831211
:100630000317BE02831603138312031700308312BD
:100640000313B0000030AF000030AE000E30AD003C
:10065000831203174C0883120313B4008312031789
:100660004B0883120313B300831203174A08831243
:100670000313B20083120317490883120313B10056
:100680000A128A15ED200A128A1183120313300808
:1006900083120317CC00831203132F08831203174E
:1006A000CB00831203132E0883120317CA00831290
:1006B00003132D0883120317C9000030831203139C
:1006C000B0000030AF000030AE000E30AD0083123D
:1006D0000317500883120313B400831203174F0843
:1006E00083120313B300831203174E0883120313FC
:1006F000B200831203174D0883120313B1000A12CC
:100700008A15ED200A128A1183120313300883120E
:100710000317D000831203132F0883120317CF008F
:10072000831203132E0883120317CE0083120313C0
:100730002D0883120317CD00003083120313BD0070
:100740000030BC000030BB006430BA0083120317D5
:10075000500883120313C100831203174F0883123A
:100760000313C000831203174E0883120313BF0044
:10077000831203174D0883120313BE000A128A1551
:100780007C210A128A11831203174908831203136A
:100790003A0783120317C7004A0803184A0A83124C
:1007A00003133B0783120317C80048088316031777
:1007B000C90083120317470883160317C8004B08A4
:1007C00083120313CB00831603174A088312031303
:1007D000CA0083160317490883120313C90083163E
:1007E0000317480883120313C80013300A128A1132
:1007F00052240A128A110D300A128A155A200A123E
:100800008A1101308312031748020D300319470281
:100810000318222C831203130615861179308316D0
:100820000313D900590883120317BA003330831217
:100830000313AE009130AF000A128A15C8200A12C5
:100840008A118328013083120317480246300319A6
:100850004702031C432C831203138614861179303C
:1008600083160313D900590883120317BA004C30BA
:1008700083120313AE009130AF000A128A15C8200C
:100880000A128A1183288312031306118610861513
:100890006530AE009130AF000A128A15C8200A12E6
:1008A0008A11832883160313BC00B03084003030D3
:1008B00083120313CC000408CD000A30CE004C088C
:1008C000840083170008CF00CC0A4D0884008313EE
:1008D0004F088000CD0ACE0B5F2CA0308400103072
:1008E000CC000408CD001030CE004C0884008317E3
:1008F0000008CF00CC0A4D08840083134F08800005
:10090000CD0ACE0B752C831603133C1EB72C831215
:100910000313CB1FB12C2D300A128A155A200A124C
:100920008A1183120313480983160313C900831223
:100930000313490983160313CA00831203134A09D8
:1009400083160313CB00831203134B09831603137F
:10095000CC00C90A0319CA0A0319CB0A0319CC0A25
:10096000CF2C2B300A128A155A200A128A118312B0
:1009700003134B0883160313CC00831203134A0896
:1009800083160313CB008312031349088316031342
:10099000CA0083120313480883160313C9004C08C6
:1009A000C8004B08C7004A08C6004908C500952F73
:1009B0004C08C8004B08C7004A08C6004908C500D3
:1009C000003083120313BD000030BC002730BB0091
:1009D0001030BA0083160313480883120313C100B2
:1009E00083160313470883120313C00083160313EF
:1009F000460883120313BF008316031345088312AE
:100A00000313BE000A128A157C210A128A1183126E
:100A100003133B0883160313BB00831203133A0826
:100A200083160313BA003A08B03E8400831300080B
:100A30000A128A155A200A128A11003083120313EF
:100A4000BD000030BC002730BB001030BA00831658
:100A500003134C0883120313C100831603134B08BE
:100A600083120313C000831603134A08831203136F
:100A7000BF0083160313490883120313BE000A1232
:100A80008A152E210A128A11831203133D08831638
:100A90000313C800831203133C0883160313C70013
:100AA000831203133B0883160313C6008312031338
:100AB0003A0883160313C500003083120313BD00E8
:100AC0000030BC000330BB00E830BA0083160313CB
:100AD000480883120313C1008316031347088312C7
:100AE0000313C00083160313460883120313BF00C9
:100AF00083160313450883120313BE000A128A15D6
:100B00007C210A128A11831203133B0883160313F4
:100B1000BE00831203133A0883160313BD003D0879
:100B2000B03E8400831300080A128A155A200A1264
:100B30008A11003083120313BD000030BC00033063
:100B4000BB00E830BA00831603134C08831203136A
:100B5000C100831603134B0883120313C0008316CE
:100B600003134A0883120313BF00831603134908B3
:100B700083120313BE000A128A152E210A128A114B
:100B8000831203133D0883160313C8008312031353
:100B90003C0883160313C700831203133B08831614
:100BA0000313C600831203133A0883160313C50008
:100BB000003083120313BD000030BC000030BB00C6
:100BC0006430BA0083160313480883120313C1006C
:100BD00083160313470883120313C00083160313FD
:100BE000460883120313BF008316031345088312BC
:100BF0000313BE000A128A157C210A128A1183127D
:100C000003133B0883160313C000831203133A082F
:100C100083160313BF003F08B03E8400831300080F
:100C20000A128A155A200A128A11003083120313FD
:100C3000BD000030BC000030BB006430BA00831639
:100C400003134C0883120313C100831603134B08CC
:100C500083120313C000831603134A08831203137D
:100C6000BF0083160313490883120313BE000A1240
:100C70008A152E210A128A11831203133D08831646
:100C80000313C800831203133C0883160313C70021
:100C9000831203133B0883160313C6008312031346
:100CA0003A0883160313C500003083120313BD00F6
:100CB0000030BC000030BB000A30BA0083160313BA
:100CC000480883120313C1008316031347088312D5
:100CD0000313C00083160313460883120313BF00D7
:100CE00083160313450883120313BE000A128A15E4
:100CF0007C210A128A11831203133B088316031303
:100D0000C200831203133A0883160313C10041087B
:100D1000B03E8400831300080A128A155A200A1272
:100D20008A11003083120313BD000030BC00003074
:100D3000BB000A30BA00831603134C088312031356
:100D4000C100831603134B0883120313C0008316DC
:100D500003134A0883120313BF00831603134908C1
:100D600083120313BE000A128A152E210A128A1159
:100D7000831203133B0883160313C4008312031367
:100D80003A0883160313C3004308B03E840083135C
:100D900000080A128A155A20080083160313450812
:100DA00083120313CC008316031346088312031324
:100DB000CD0083160313470883120313CE00831656
:100DC0000313480883120313CF000C300310CF0C19
:100DD000CE0CCD0CCC0CFF3E031DE62E4D08831629
:100DE0000313BE00831203134C0883160313BD00C4
:100DF0003D08A03E8400831300080A128A155A2079
:100E00000A128A11FF30831603134905C5000F30FB
:100E10004A05C60000304B05C70000304C05C8002D
:100E2000450883120313CC0083160313460883126C
:100E30000313CD0083160313470883120313CE0058
:100E400083160313480883120313CF0008300310DE
:100E5000CF0CCE0CCD0CCC0CFF3E031D272F4D0824
:100E600083160313C000831203134C088316031365
:100E7000BF003F08A03E8400831300080A128A15B1
:100E80005A200A128A11FF30831603134905C50040
:100E900000304A05C60000304B05C70000304C0545
:100EA000C800450883120313CC00831603134608B9
:100EB00083120313CD008316031347088312031311
:100EC000CE0083160313480883120313CF000430A7
:100ED0000310CF0CCE0CCD0CCC0CFF3E031D682FA5
:100EE0004D0883160313C200831203134C088316A4
:100EF0000313C1004108A03E8400831300080A12B6
:100F00008A155A200A128A110F30831603134905D5
:100F1000C30000304A05C4004308A03E8400831388
:100F200000080A128A155A200800831603133C0889
:100F3000013A0319912E033A0319152E013A0319A8
:100F4000992D073A03191D2D013A0319D82C143A8B
:100F50000319912E033A0319152E013A0319992DFD
:100F6000073A03191D2D013A0319D82C343A0319F5
:100F7000842F033A0319432F013A0319022F073A2A
:100F80000319CD2EC32F08003034313432343334BA
:100F900034343534363437343834393441344234E7
:100FA00043344434453446343034313432343334C9
:100FB00034343534363437343834393441344234C7
:100FC00043344434453446343034313432343334A9
:100FD0003434353436343734383439347E088A0082
:100FE0007F088200EE270A128A118000840A040812
:100FF0007D0603190034FF0A0319FE0AF22F0800C8
:1010880008000134003480340034793483120313A7
:101098009F1850286E3008007930080064008001DD
:1010A800840A040603190034040653288312031320
:1010B800AD002D08990083160313981808005F28BF
:1010C80030343134323433343434353436343734DC
:1010D8003834393401340034C034003483120313F3
:1010E8001010831603130C10831203130C10DE0167
:1010F8000430F0007008DC000800F200F301721CF4
:1011080089287008F1007108F3070310F00D031027
:10111800F20C7208031D8328730808008312031356
:10112800B000AF01301C9C282D08AE002E08AF0778
:101138000310AD0D0310B00C3008031D96282F08BE
:1011480008002030831603139900831603178711AC
:1011580083160313181183120313981783160313A6
:10116800181283120313181683160313981298166D
:10117800831203139812831603130C128C16181378
:101188008312031318130800831203132F08FF0098
:101198002E0884000A168A1100200A128A15003ABD
:1011A80003190800831203132F08FF002E08840078
:1011B8000A168A1100200A128A150A128A155A205C
:1011C8000A128A15013083120313AE070318AF0AF7
:1011D800C828003083120313B9000030B80000306B
:1011E800B7000030B6002D1C0D293108B6073208AB
:1011F80003110318013E031DB70733080311031831
:10120800013E031DB807340803110318013E031DEE
:10121800B9070130B5000310B10DB20DB30DB40D0F
:10122800B50B0F2901300310B00CAF0CAE0CAD0C90
:10123800FF3E031D172930082F042E042D04031D1B
:10124800F7283908B0003808AF003708AE0036086C
:10125800AD000800831203133D083C043B043A0424
:1012680003197329C301C30ABD1B48290130C200F1
:101278000310BA0DBB0DBC0DBD0DC20B3C290130CE
:10128800C2004208C30738293D084102031D5629F8
:101298003C084002031D56293B083F02031D5629FE
:1012A8003A083E02031C66293A08BE023B08031CA2
:1012B8003B0FBF023C08031C3C0FC0023D08031C47
:1012C8003D0FC10201300310BD0CBC0CBB0CBA0CA5
:1012D800FF3E031D67290130C302031D4829410849
:1012E800BD004008BC003F08BB003E08BA0008002B
:1012F800003083120313C6000030C5000030C4005C
:101308000030C3003D083C043B043A040319D329C8
:10131800C701C70ABD1B9E290130C2000310BA0DC0
:10132800BB0DBC0DBD0DC20B92290130C200420895
:10133800C7078E290130C2000310C30DC40DC50DA7
:10134800C60DC20BA0293D084102031DB5293C0862
:101358004002031DB5293B083F02031DB5293A0881
:101368003E02031CC6293A08BE023B08031C3B0F79
:10137800BF023C08031C3C0FC0023D08031C3D0F84
:10138800C102431401300310BD0CBC0CBB0CBA0CD9
:10139800FF3E031DC7290130C702031D9E294608C9
:1013A800BD004508BC004408BB004308BA0008005B
:1013B80083120313B2000E303202031808003208F9
:1013C800B1003108DF000530B1003108AD005F0819
:1013D8000A128A1592200A128A15043ED63E840003
:1013E800FC3083178005053083120313B1003108E0
:1013F800AD005F080A128A1592200A128A15043E67
:10140800D63E840083170008F33908388000053079
:1014180083120313B1003108AD005F080A128A1560
:1014280092200A128A15043ED63E8400831780163D
:10143800053083120313B1003108AD005F080A12AA
:101448008A1592200A128A15043ED63E8400831714
:101458000013053083120313B1003108AD005F0893
:101468000A128A159220043ED63E84008317801300
:1014780008000B1A8B1C472A8B100B120A128A11B0
:1014880003200A128A15831203130C1F262B8316B6
:1014980003130C13053083120313A0002008F00077
:1014A8005F080A128A1581200A128A15043ED63E60
:1014B800840083170008FC39023880008316031360
:1014C8009F1FA22A1E0883120313A000A10120084F
:1014D800F4002108F5001E080339A000A101200826
:1014E800F6002108F7007608A100A001740820077B
:1014F800A20075080318750A2107A3002208A40092
:101508002308A500A601A7010530A8002808F000B7
:101518005F080A128A1581200A128A15D63E8400AD
:1015280083120313240883178000840A2508800087
:10153800840A26088000840A27081C2B83160313B4
:101548001E08C03983120313A000A1012008F4006B
:101558002108F5001E08A000A1012008F6002108B6
:10156800F7007608A100A00174082007A2007508FA
:101578000318750A2107A3002208A4002308A50060
:10158800A601A7010530A8002808F0005F080A1284
:101598008A1581200A128A15D63E84008312031305
:1015A800240883178000840A25088000840A2608F6
:1015B8008000840A270880000530A0002008F00079
:1015C8005F080A128A1581200A128A15D63E8400FD
:1015D8008317000883120313A100840A0008A200DD
:1015E800840A0008A300840A0008A4000630031037
:1015F800A40CA30CA20CA10CFF3E031DFB2A053072
:10160800A5002508F0005F080A128A1581200A1231
:101618008A15D63E8400831203132108831780009D
:10162800840A22088000840A23088000840A240887
:1016380080005F080A128A1544200A128A1583124C
:1016480003130C130C1CB02B0C105608A0005708E1
:10165800A1005808A2005908A30008300310A30CE1
:10166800A20CA10CA00CFF3E031D322B20088F00FA
:1016780056088E00013083160317C0070030031880
:101688000130C107003003180130C20700300318C9
:101698000130C3073F084302031D5C2B3E0842028A
:1016A800031D5C2B3D084102031D5C2B3C084002D6
:1016B800031CB02B0130D2070318D30A0030D3071C
:1016C800520883120313A0008316031753088312CA
:1016D8000313A100A201A301831603173B08831279
:1016E80003132302031D8E2B831603173A08831254
:1016F80003132202031D8E2B831603173908831246
:1017080003132102031D8E2B831603173808831237
:1017180003132002031CA62B0A128A1572200A1230
:101728008A1583160317D201D3010030C300003095
:10173800C2000030C1000030C0000A128A11FF2721
:101748000A128A15003083160317C3000030C2003E
:101758000030C1000030C000831203132C08FF00C2
:101768002B088A002A088400290E8300FE0E7E0EAC
:10177800090083160313D8000A128A154A200A1290
:101788008A1583160313CD004D08D300452D0E305E
:10179800831203135F060319172D0E305F02031817
:1017A800D92C5F0883160313CD0002300310CD0D2A
:1017B800FF3E031DDA2B5808043E84008317000CF3
:1017C800CE004E0C0339CF0005300310CF0DFF3E7D
:1017D800031DE92B03104F0D4D04831203139F00C3
:1017E800831603135808043E8400000D000D0139C8
:1017F800CD0004300310CD0DFF3E031DFE2B58080D
:10180800043E8400000ECE00CE0C4E0C0139CF00F1
:1018180005300310CF0DFF3E031D0D2C5808043E64
:101828008400000ED000500C0139D100063003109E
:10183800D10DFF3E031D1B2C0310510D4F044D0409
:101848009F00831203131F140C13302C0C170B1753
:101858008B173E2C0C133E2C831603135808043E9A
:10186800840000080339003A03192E2C013A0319A1
:101878002A2C3E2C203083160313CD00CD0B422C8E
:101888000000831203139F14CC2C83129F18492C39
:101898000C13831603139F1F862C1E08CD00CE0140
:1018A8004D08D4004E08D500831203131E080339CF
:1018B80083160313CD00CE014D08D6004E08D7007D
:1018C80008300310D60DD70DFF3E031D652C5408B4
:1018D8005604CD0055085704CE004D08CF004E08D9
:1018E800D000D101D201580884004F088317800026
:1018F800840A50088000840A51088000840A52082B
:10190800800008001E08C039CD00CE014D08D40063
:101918004E08D500831203131E0883160313CD0047
:10192800CE014D08D6004E08D70008300310D60D5A
:10193800D70DFF3E031D9A2C54085604CD005508B8
:101948005704CE004D08CF004E08D000D101D20177
:10195800580884004F0883178000840A50088000C4
:10196800840A51088000840A5208800058088400BC
:101978000630840A840A840A0310800C8403800CCD
:101988008403800C8403800CFF3E03190800BD2CDF
:10199800831603135808043E84008317000803398C
:1019A800003A0319492C4C2D080083125F0883164E
:1019B8000313CD00CE014D0883160317C800831604
:1019C80003134E0883160317C9001030831203133C
:1019D800AE009130AF000A128A15C8200A128A1583
:1019E800831603174B0883120313CB0083160317C0
:1019F8004A0883120313CA0083160317490883127F
:101A08000313C90083160317480883120313C80079
:101A180012300A128A1152240A128A150D300A123B
:101A28008A155A200800831603135808043E8400B8
:101A38008317000E0139CD0002300310CD0DFF3E93
:101A4800031D212D5808043E8400000CCE004E0CC6
:101A58000339CF0005300310CF0DFF3E031D2F2D96
:101A680003104F0D4D043838831203139F000800EC
:101A7800E3308312AE009030AF000A128A15C820F6
:101A880008008316031353086E3A0319CB2B3C2D19
:101A98000800831603132708031DEA2F2608031DD1
:101AA800EA2F2508031DEA2F41302402031D5C2D6F
:101AB8000318EA2F003083120313BD000030BC0066
:101AC8000330BB00FF30BA008316031327088312C4
:101AD8000313B00083160313260883120313AF0001
:101AE80083160313250883120313AE00831603130A
:101AF800240883120313AD008316031323088312EB
:101B08000313B40083160313220883120313B300CC
:101B180083160313210883120313B20083160313D9
:101B2800200883120313B1000A128A15ED200A1245
:101B38008A15831203133008C1002F08C0002E082D
:101B4800BF002D08BE000A128A157C210A128A15C8
:101B5800831203133D0883160313B1008312031382
:101B68003C0883160313B000831203133B08831643
:101B78000313AF00831203133A0883160313AE004E
:101B88002E08280783120313C800003003180130F9
:101B9800831603132F0783120313CA010318CA0AF3
:101BA80083160313290783120313C9000318CA0AEB
:101BB800831603133008831203134A07CB01031853
:101BC800CB0A831603132A0783120313CA000318C8
:101BD800CB0A831603133108831203134B078316AA
:101BE80003132B0783120313CB00831603132C084C
:101BF800840083120313480883178000840A490865
:101C08008000840A4A088000840A4B08800000305B
:101C1800BD000030BC000330BB00FF30BA008316A3
:101C28000313270883120313B0008316031326082F
:101C380083120313AF0083160313250883120313BB
:101C4800AE0083160313240883120313AD00831612
:101C58000313230883120313B40083160313220803
:101C680083120313B300831603132108831203138B
:101C7800B20083160313200883120313B1000A125B
:101C88008A15ED200A128A15831203133008C10041
:101C98002F08C0002E08BF002D08BE000A128A15A2
:101CA8002E210A128A15831203133D088316031383
:101CB800C100831203133C0883160313C000831268
:101CC80003133B0883160313BF00831203133A0858
:101CD80083160313BE00003083120313BD000030C7
:101CE800BC000330BB00FF30BA0083160313410861
:101CF80083120313B00083160313400883120313DF
:101D0800AF00831603133F0883120313AE00831634
:101D180003133E0883120313AD000030B4000030F3
:101D2800B3000030B2000A30B1000A128A15ED2063
:101D38000A128A15831203133008C1002F08C00045
:101D48002E08BF002D08BE000A128A157C210A122F
:101D58008A15831203133D0883160313B9008312EF
:101D680003133C0883160313B800831203133B08BC
:101D780083160313B700831203133A088316031359
:101D8800B600003083120313BD000030BC000330DE
:101D9800BB00FF30BA0083160313410883120313F4
:101DA800B00083160313400883120313AF00831691
:101DB80003133F0883120313AE00831603133E0870
:101DC80083120313AD000030B4000030B3000030BC
:101DD800B2000A30B1000A128A15ED200A128A15DB
:101DE800831203133008C1002F08C0002E08BF005B
:101DF8002D08BE000A128A152E210A128A1583128E
:101E080003133D0883160313B500831203133C081C
:101E180083160313B400831203133B0883160313BA
:101E2800B300831203133A0883160313B200003079
:101E380083120313BD000030BC000330BB00FF3029
:101E4800BA0083160313350883120313B0008316F0
:101E58000313340883120313AF00831603133308E4
:101E680083120313AE00831603133208831203137D
:101E7800AD000030B4000030B3000030B2000A30CA
:101E8800B1000A128A15ED200A128A15831203136B
:101E98003008C1002F08C0002E08BF002D08BE0062
:101EA8000A128A157C210A128A15831203133D0827
:101EB80083160313BD00831203133C088316031310
:101EC800BC00831203133B0883160313BB00831261
:101ED80003133A0883160313BA003D088312031349
:101EE800B000831603133C0883120313AF00831654
:101EF80003133B0883120313AE00831603133A0837
:101F080083120313AD000030B4000030B30000307A
:101F1800B2000A30B1000A128A15ED200A128A1599
:101F2800831203132D08C8002E08C9002F08CA0001
:101F38003008CB0083160313390883120313B0004B
:101F480083160313380883120313AF008316031391
:101F5800370883120313AE0083160313360883125F
:101F68000313AD000030B4000030B3000030B200FD
:101F78006430B1000A128A15ED200A128A158312FC
:101F880003132D08C8072E0803182E0FCC2FCD2FAA
:101F9800C9072F0803182F0FD22FD32FCA073008CD
:101FA8000318300ACB07831603132D088400831205
:101FB8000313480883178000840A49088000840AAC
:101FC8004A088000840A4B0880000800831603131F
:101FD8002C08840083178001840A8001840A800108
:101FE800840A80012D0884008001840A8001840A03
:101FF8008001840A80010800FF1B0A2883137F18C8
:1020080083170008840A0319FF0A08007F087F392C
:102018008A000408840A0319FF0A82004F344534F1
:102028005234523400344634453452345234003435
:102038004534523452343A34203474346D34723462
:102048003134203469347334203463346F34753454
:102058006E347434653472342034623475347434B4
:10206800203463346C346B34203473346F347534F7
:1020780072346334653420346934733420346E34F4
:102088006F3474342034653478347434653472347D
:102098006E3461346C3420340D3400344534523499
:1020A80052343A34203474346D3472343134203438
:1020B800693473342034743469346D34653472345B
:1020C8002034623475347434203463346C346B34A3
:1020D800203473346F347534723463346534203487
:1020E8006934733420346E346F3474342034693472
:1020F8006E347434653472346E3461346C34203424
:102108000D3400344534523452343A342034743463
:1021180072347934203474346F342034643469343C
:102128007334613462346C3465342034413444345B
:10213800433420347734683469346C34653420345B
:10214800413444344334203443346F346E34763469
:1021580065347234743469346E34673420340D3421
:1021680000344534523452343A34203474346D34A3
:1021780072343134203469347334203463346F3426
:1021880075346E3474346534723420346234753482
:10219800743420344C34503420346F347334633402
:1021A80020346934733420346434693473346134CA
:1021B80062346C346534643420340D34003445346E
:1021C800523452343A3420347434723479342034EA
:1021D80074346F3420347334743461347234743426
:1021E80020344134443443342034773468346934F7
:1021F8006C3465342034413444344334203443341B
:102208006F346E34763465347234743469346E34B1
:10221800673420340D3400344534523452343A345F
:10222800203469346E34763461346C3469346434FF
:1022380020344134443443342034633468346134C2
:102248006E346E3465346C342034733465346C34D5
:1022580065346334743420343A34203400344534DB
:10226800523452343A3420345234203452344D34B7
:10227800533420343C3420344D3449344E342034E3
:102288004C3449344D344934543420340D340034FA
:102298004534523452343A3420345234203452348F
:1022A8004D34533420343E3420344D344134583482
:1022B80020344C3449344D344934543420340D34AA
:1022C80000345234203452344D345334203477346B
:1022D80069347434683469346E3420344C34493485
:1022E8004D344934543420340D3400340D344534DD
:1022F800523452343A342034463445345234523409
:102308000D34203400340D344534523452343A34C8
:1023180020344F344534523452340D342034003490
:06232800203420340034D3
:04400E00E4ECFFFFE0
:00000001FF
